{
  "contractName": "Store",
  "abi": [
    {
      "inputs": [],
      "stateMutability": "nonpayable",
      "type": "constructor"
    },
    {
      "inputs": [],
      "name": "owner",
      "outputs": [
        {
          "internalType": "address",
          "name": "",
          "type": "address"
        }
      ],
      "stateMutability": "view",
      "type": "function"
    },
    {
      "inputs": [
        {
          "internalType": "uint256",
          "name": "num",
          "type": "uint256"
        }
      ],
      "name": "storei",
      "outputs": [],
      "stateMutability": "nonpayable",
      "type": "function"
    },
    {
      "inputs": [],
      "name": "retrieve",
      "outputs": [
        {
          "internalType": "uint256",
          "name": "",
          "type": "uint256"
        }
      ],
      "stateMutability": "view",
      "type": "function"
    }
  ],
  "bytecode": "0x608060405234801561001057600080fd5b5033600160006101000a81548173ffffffffffffffffffffffffffffffffffffffff021916908373ffffffffffffffffffffffffffffffffffffffff160217905550610308806100616000396000f3fe608060405234801561001057600080fd5b50600436106100415760003560e01c80632e64cec1146100465780638da5cb5b1461006457806390ed52bd14610082575b600080fd5b61004e61009e565b60405161005b9190610180565b60405180910390f35b61006c6100a7565b60405161007991906101dc565b60405180910390f35b61009c60048036038101906100979190610228565b6100cd565b005b60008054905090565b600160009054906101000a900473ffffffffffffffffffffffffffffffffffffffff1681565b600160009054906101000a900473ffffffffffffffffffffffffffffffffffffffff1673ffffffffffffffffffffffffffffffffffffffff163373ffffffffffffffffffffffffffffffffffffffff161461015d576040517f08c379a0000000000000000000000000000000000000000000000000000000008152600401610154906102b2565b60405180910390fd5b8060008190555050565b6000819050919050565b61017a81610167565b82525050565b60006020820190506101956000830184610171565b92915050565b600073ffffffffffffffffffffffffffffffffffffffff82169050919050565b60006101c68261019b565b9050919050565b6101d6816101bb565b82525050565b60006020820190506101f160008301846101cd565b92915050565b600080fd5b61020581610167565b811461021057600080fd5b50565b600081359050610222816101fc565b92915050565b60006020828403121561023e5761023d6101f7565b5b600061024c84828501610213565b91505092915050565b600082825260208201905092915050565b7f6e6f206572657320656c206f776e657200000000000000000000000000000000600082015250565b600061029c601083610255565b91506102a782610266565b602082019050919050565b600060208201905081810360008301526102cb8161028f565b905091905056fea2646970667358221220572f1f10882a68a0064dd81b3a66a081e36a7abceaceca2d0d09cae8f1630a1f64736f6c63430008110033",
  "immutableReferences": {},
  "source": "// SPDX-License-Identifier: GPL-3.0\n\npragma solidity >=0.7.0 <0.9.0;\n\n/**\n * @title Storage\n * @dev Store & retrieve value in a variable\n * @custom:dev-run-script ./scripts/deploy_with_ethers.ts\n */\ncontract Store {\n\n    uint256 number;\n    address public owner;\n\n    modifier onlyOwner{\n        require(msg.sender==owner,\"no eres el owner\");\n        _;\n    }\n\n    constructor() {\n        owner=msg.sender;\n    }\n\n    /**\n     * @dev Store value in variable\n     * @param num value to store\n     */\n    function storei(uint256 num) public onlyOwner {\n        number = num;\n    }\n\n    /**\n     * @dev Return value \n     * @return value of 'number'\n     */\n    function retrieve() public view returns (uint256){\n        return number;\n    }\n}\n",
  "sourcePath": "/home/cryptocris/edIT/testing/contracts/Store.sol",
  "compiler": {
    "name": "solc",
    "version": "0.8.17+commit.8df45f5f.Emscripten.clang"
  },
  "schemaVersion": "3.4.11",
  "updatedAt": "2023-01-04T04:05:15.706Z",
  "devdoc": {
    "custom:dev-run-script": "./scripts/deploy_with_ethers.ts",
    "details": "Store & retrieve value in a variable",
    "kind": "dev",
    "methods": {
      "retrieve()": {
        "details": "Return value ",
        "returns": {
          "_0": "value of 'number'"
        }
      },
      "storei(uint256)": {
        "details": "Store value in variable",
        "params": {
          "num": "value to store"
        }
      }
    },
    "title": "Storage",
    "version": 1
  },
  "userdoc": {
    "kind": "user",
    "methods": {},
    "version": 1
  }
}