{
  "contractName": "Ethprice",
  "abi": [
    {
      "inputs": [],
      "stateMutability": "nonpayable",
      "type": "constructor"
    },
    {
      "inputs": [],
      "name": "pair",
      "outputs": [
        {
          "internalType": "string",
          "name": "",
          "type": "string"
        }
      ],
      "stateMutability": "view",
      "type": "function",
      "constant": true
    },
    {
      "inputs": [],
      "name": "lastPrice",
      "outputs": [
        {
          "internalType": "int256",
          "name": "",
          "type": "int256"
        }
      ],
      "stateMutability": "view",
      "type": "function",
      "constant": true
    },
    {
      "inputs": [
        {
          "internalType": "address",
          "name": "_addr",
          "type": "address"
        },
        {
          "internalType": "string",
          "name": "_pair",
          "type": "string"
        }
      ],
      "name": "changePair",
      "outputs": [],
      "stateMutability": "nonpayable",
      "type": "function"
    }
  ],
  "bytecode": "0x608060405234801561001057600080fd5b5073d4a33860578de61dbabdc8bfdb98fd742fa7028e6000806101000a81548173ffffffffffffffffffffffffffffffffffffffff021916908373ffffffffffffffffffffffffffffffffffffffff160217905550610675806100746000396000f3fe608060405234801561001057600080fd5b50600436106100415760003560e01c8063053f14da14610046578063a8aa1b3114610064578063e3b36fdf14610082575b600080fd5b61004e61009e565b60405161005b9190610489565b60405180910390f35b61006c61014c565b60405161007991906104a4565b60405180910390f35b61009c60048036038101906100979190610372565b6101da565b005b60008060008054906101000a900473ffffffffffffffffffffffffffffffffffffffff1673ffffffffffffffffffffffffffffffffffffffff1663feaf968c6040518163ffffffff1660e01b815260040160a06040518083038186803b15801561010757600080fd5b505afa15801561011b573d6000803e3d6000fd5b505050506040513d601f19601f8201168201806040525081019061013f91906103ca565b5050509150508091505090565b6001805461015990610571565b80601f016020809104026020016040519081016040528092919081815260200182805461018590610571565b80156101d25780601f106101a7576101008083540402835291602001916101d2565b820191906000526020600020905b8154815290600101906020018083116101b557829003601f168201915b505050505081565b8181600191906101eb929190610231565b50826000806101000a81548173ffffffffffffffffffffffffffffffffffffffff021916908373ffffffffffffffffffffffffffffffffffffffff160217905550505050565b82805461023d90610571565b90600052602060002090601f01602090048101928261025f57600085556102a6565b82601f1061027857803560ff19168380011785556102a6565b828001600101855582156102a6579182015b828111156102a557823582559160200191906001019061028a565b5b5090506102b391906102b7565b5090565b5b808211156102d05760008160009055506001016102b8565b5090565b6000813590506102e3816105e3565b92915050565b6000815190506102f8816105fa565b92915050565b60008083601f84011261031057600080fd5b8235905067ffffffffffffffff81111561032957600080fd5b60208301915083600182028301111561034157600080fd5b9250929050565b60008151905061035781610611565b92915050565b60008151905061036c81610628565b92915050565b60008060006040848603121561038757600080fd5b6000610395868287016102d4565b935050602084013567ffffffffffffffff8111156103b257600080fd5b6103be868287016102fe565b92509250509250925092565b600080600080600060a086880312156103e257600080fd5b60006103f08882890161035d565b9550506020610401888289016102e9565b945050604061041288828901610348565b935050606061042388828901610348565b92505060806104348882890161035d565b9150509295509295909350565b61044a816104f4565b82525050565b600061045b826104c6565b61046581856104d1565b935061047581856020860161053e565b61047e816105d2565b840191505092915050565b600060208201905061049e6000830184610441565b92915050565b600060208201905081810360008301526104be8184610450565b905092915050565b600081519050919050565b600082825260208201905092915050565b60006104ed826104fe565b9050919050565b6000819050919050565b600073ffffffffffffffffffffffffffffffffffffffff82169050919050565b6000819050919050565b600069ffffffffffffffffffff82169050919050565b60005b8381101561055c578082015181840152602081019050610541565b8381111561056b576000848401525b50505050565b6000600282049050600182168061058957607f821691505b6020821081141561059d5761059c6105a3565b5b50919050565b7f4e487b7100000000000000000000000000000000000000000000000000000000600052602260045260246000fd5b6000601f19601f8301169050919050565b6105ec816104e2565b81146105f757600080fd5b50565b610603816104f4565b811461060e57600080fd5b50565b61061a8161051e565b811461062557600080fd5b50565b61063181610528565b811461063c57600080fd5b5056fea26469706673582212204b2893adda59283404470d3a7d006485e1aab0b1497af31075ce2a4c8c065e4d64736f6c63430008000033",
  "immutableReferences": {},
  "source": "// SPDX-License-Identifier: MIT\r\npragma solidity ^0.8.0;\r\n\r\n//npm install @chainlink/contracts\r\nimport \"@chainlink/contracts/src/v0.8/interfaces/AggregatorV3Interface.sol\";\r\n\r\n//tutorial= https://docs.chain.link/getting-started/consuming-data-feeds/\r\n\r\n// Address for interfaces, diferent pairs= https://docs.chain.link/data-feeds/price-feeds/addresses/\r\n\r\n// deployed at: 0x680E6AE23421Bf2ef20f746f86C16935dE9d903b\r\ncontract Ethprice{\r\n    AggregatorV3Interface internal precioEth;\r\n    address constant goerliAggrAddr=0xD4a33860578De61DBAbDc8BFdb98FD742fA7028e;\r\n    string public pair;\r\n\r\n    constructor(){\r\n        precioEth = AggregatorV3Interface(goerliAggrAddr);\r\n    }\r\n\r\n    function lastPrice() external view returns (int256){\r\n        (, int256 answer, , , ) = precioEth.latestRoundData();\r\n        return answer;\r\n    }\r\n\r\n    function changePair(address _addr, string calldata _pair) external{\r\n        pair=_pair;\r\n        precioEth = AggregatorV3Interface(_addr);\r\n    }\r\n\r\n}",
  "sourcePath": "/home/cryptocris/edIT/oraculos/data_feed/contracts/Ethprice.sol",
  "compiler": {
    "name": "solc",
    "version": "0.8.0+commit.c7dfd78e.Emscripten.clang"
  },
  "schemaVersion": "3.4.11",
  "updatedAt": "2023-02-07T16:04:54.129Z",
  "networkType": "ethereum",
  "devdoc": {
    "kind": "dev",
    "methods": {},
    "version": 1
  },
  "userdoc": {
    "kind": "user",
    "methods": {},
    "version": 1
  }
}