{
  "contractName": "Random",
  "abi": [
    {
      "inputs": [],
      "stateMutability": "nonpayable",
      "type": "constructor"
    },
    {
      "anonymous": false,
      "inputs": [
        {
          "indexed": true,
          "internalType": "address",
          "name": "from",
          "type": "address"
        },
        {
          "indexed": true,
          "internalType": "address",
          "name": "to",
          "type": "address"
        }
      ],
      "name": "OwnershipTransferRequested",
      "type": "event"
    },
    {
      "anonymous": false,
      "inputs": [
        {
          "indexed": true,
          "internalType": "address",
          "name": "from",
          "type": "address"
        },
        {
          "indexed": true,
          "internalType": "address",
          "name": "to",
          "type": "address"
        }
      ],
      "name": "OwnershipTransferred",
      "type": "event"
    },
    {
      "inputs": [],
      "name": "VRFCoordinator",
      "outputs": [
        {
          "internalType": "address",
          "name": "",
          "type": "address"
        }
      ],
      "stateMutability": "view",
      "type": "function"
    },
    {
      "inputs": [],
      "name": "acceptOwnership",
      "outputs": [],
      "stateMutability": "nonpayable",
      "type": "function"
    },
    {
      "inputs": [],
      "name": "lastRequestedId",
      "outputs": [
        {
          "internalType": "bytes32",
          "name": "",
          "type": "bytes32"
        }
      ],
      "stateMutability": "view",
      "type": "function"
    },
    {
      "inputs": [],
      "name": "link",
      "outputs": [
        {
          "internalType": "address",
          "name": "",
          "type": "address"
        }
      ],
      "stateMutability": "view",
      "type": "function"
    },
    {
      "inputs": [],
      "name": "owner",
      "outputs": [
        {
          "internalType": "address",
          "name": "",
          "type": "address"
        }
      ],
      "stateMutability": "view",
      "type": "function"
    },
    {
      "inputs": [],
      "name": "randomResult",
      "outputs": [
        {
          "internalType": "uint256",
          "name": "",
          "type": "uint256"
        }
      ],
      "stateMutability": "view",
      "type": "function"
    },
    {
      "inputs": [
        {
          "internalType": "bytes32",
          "name": "requestId",
          "type": "bytes32"
        },
        {
          "internalType": "uint256",
          "name": "randomness",
          "type": "uint256"
        }
      ],
      "name": "rawFulfillRandomness",
      "outputs": [],
      "stateMutability": "nonpayable",
      "type": "function"
    },
    {
      "inputs": [
        {
          "internalType": "address",
          "name": "to",
          "type": "address"
        }
      ],
      "name": "transferOwnership",
      "outputs": [],
      "stateMutability": "nonpayable",
      "type": "function"
    },
    {
      "inputs": [],
      "name": "requestNewRandom",
      "outputs": [
        {
          "internalType": "bytes32",
          "name": "",
          "type": "bytes32"
        }
      ],
      "stateMutability": "nonpayable",
      "type": "function"
    },
    {
      "inputs": [],
      "name": "withdrawLink",
      "outputs": [],
      "stateMutability": "nonpayable",
      "type": "function"
    }
  ],
  "bytecode": "0x60c06040527f0476f9a745b61ea5c0ab224d3a6e4c99f0b02fce4da01143a4f70aa80ae76e8a60001b60035567016345785d8a0000600455732bce784e69d2ff36c71edcb9f88358db0dfb55b4600660006101000a81548173ffffffffffffffffffffffffffffffffffffffff021916908373ffffffffffffffffffffffffffffffffffffffff16021790555073326c977e6efc84e512bb9c30f76e30c160ed06fb600760006101000a81548173ffffffffffffffffffffffffffffffffffffffff021916908373ffffffffffffffffffffffffffffffffffffffff160217905550348015620000ee57600080fd5b5033806000600660009054906101000a900473ffffffffffffffffffffffffffffffffffffffff16600760009054906101000a900473ffffffffffffffffffffffffffffffffffffffff168173ffffffffffffffffffffffffffffffffffffffff1660a08173ffffffffffffffffffffffffffffffffffffffff1660601b815250508073ffffffffffffffffffffffffffffffffffffffff1660808173ffffffffffffffffffffffffffffffffffffffff1660601b815250505050600073ffffffffffffffffffffffffffffffffffffffff168273ffffffffffffffffffffffffffffffffffffffff1614156200021c576040517f08c379a0000000000000000000000000000000000000000000000000000000008152600401620002139062000463565b60405180910390fd5b81600160006101000a81548173ffffffffffffffffffffffffffffffffffffffff021916908373ffffffffffffffffffffffffffffffffffffffff160217905550600073ffffffffffffffffffffffffffffffffffffffff168173ffffffffffffffffffffffffffffffffffffffff1614620002a457620002a381620002ad60201b60201c565b5b505050620004b8565b3373ffffffffffffffffffffffffffffffffffffffff168173ffffffffffffffffffffffffffffffffffffffff1614156200031f576040517f08c379a0000000000000000000000000000000000000000000000000000000008152600401620003169062000485565b60405180910390fd5b80600260006101000a81548173ffffffffffffffffffffffffffffffffffffffff021916908373ffffffffffffffffffffffffffffffffffffffff1602179055508073ffffffffffffffffffffffffffffffffffffffff16600160009054906101000a900473ffffffffffffffffffffffffffffffffffffffff1673ffffffffffffffffffffffffffffffffffffffff167fed8889f560326eb138920d842192f0eb3dd22b4f139c87a2c57538e05bae127860405160405180910390a350565b6000620003ee601883620004a7565b91507f43616e6e6f7420736574206f776e657220746f207a65726f00000000000000006000830152602082019050919050565b600062000430601783620004a7565b91507f43616e6e6f74207472616e7366657220746f2073656c660000000000000000006000830152602082019050919050565b600060208201905081810360008301526200047e81620003df565b9050919050565b60006020820190508181036000830152620004a08162000421565b9050919050565b600082825260208201905092915050565b60805160601c60a05160601c611225620005006000396000818161066b0152610759015260008181610202015281816104d501528181610512015261071d01526112256000f3fe608060405234801561001057600080fd5b506004361061009e5760003560e01c806379ba50971161006657806379ba5097146101395780638da5cb5b146101435780638dc654a21461016157806394985ddd1461016b578063f2fde38b146101875761009e565b80631c4695f4146100a357806333b60863146100c157806342619f66146100df5780634dd84bad146100fd5780636a8ba2fa1461011b575b600080fd5b6100ab6101a3565b6040516100b89190610e51565b60405180910390f35b6100c96101c9565b6040516100d69190610e51565b60405180910390f35b6100e76101ef565b6040516100f4919061101c565b60405180910390f35b6101056101f5565b6040516101129190610ed3565b60405180910390f35b6101236101fb565b6040516101309190610ed3565b60405180910390f35b61014161030a565b005b61014b6104a1565b6040516101589190610e51565b60405180910390f35b6101696104cb565b005b61018560048036038101906101809190610b86565b610669565b005b6101a1600480360381019061019c9190610b34565b610705565b005b600760009054906101000a900473ffffffffffffffffffffffffffffffffffffffff1681565b600660009054906101000a900473ffffffffffffffffffffffffffffffffffffffff1681565b60055481565b60085481565b60006004547f000000000000000000000000000000000000000000000000000000000000000073ffffffffffffffffffffffffffffffffffffffff166370a08231306040518263ffffffff1660e01b81526004016102599190610e51565b60206040518083038186803b15801561027157600080fd5b505afa158015610285573d6000803e3d6000fd5b505050506040513d601f19601f820116820180604052508101906102a99190610bc2565b10156102ea576040517f08c379a00000000000000000000000000000000000000000000000000000000081526004016102e190610f9c565b60405180910390fd5b60006102fa600354600454610719565b9050806008819055508091505090565b600260009054906101000a900473ffffffffffffffffffffffffffffffffffffffff1673ffffffffffffffffffffffffffffffffffffffff163373ffffffffffffffffffffffffffffffffffffffff161461039a576040517f08c379a000000000000000000000000000000000000000000000000000000000815260040161039190610f5c565b60405180910390fd5b6000600160009054906101000a900473ffffffffffffffffffffffffffffffffffffffff16905033600160006101000a81548173ffffffffffffffffffffffffffffffffffffffff021916908373ffffffffffffffffffffffffffffffffffffffff1602179055506000600260006101000a81548173ffffffffffffffffffffffffffffffffffffffff021916908373ffffffffffffffffffffffffffffffffffffffff1602179055503373ffffffffffffffffffffffffffffffffffffffff168173ffffffffffffffffffffffffffffffffffffffff167f8be0079c531659141344cd1fd0a4f28419497f9722a3daafe3b4186f6b6457e060405160405180910390a350565b6000600160009054906101000a900473ffffffffffffffffffffffffffffffffffffffff16905090565b6104d3610878565b7f000000000000000000000000000000000000000000000000000000000000000073ffffffffffffffffffffffffffffffffffffffff1663a9059cbb337f000000000000000000000000000000000000000000000000000000000000000073ffffffffffffffffffffffffffffffffffffffff166370a08231306040518263ffffffff1660e01b81526004016105699190610e51565b60206040518083038186803b15801561058157600080fd5b505afa158015610595573d6000803e3d6000fd5b505050506040513d601f19601f820116820180604052508101906105b99190610bc2565b6040518363ffffffff1660e01b81526004016105d6929190610e6c565b602060405180830381600087803b1580156105f057600080fd5b505af1158015610604573d6000803e3d6000fd5b505050506040513d601f19601f820116820180604052508101906106289190610b5d565b610667576040517f08c379a000000000000000000000000000000000000000000000000000000000815260040161065e90610fbc565b60405180910390fd5b565b7f000000000000000000000000000000000000000000000000000000000000000073ffffffffffffffffffffffffffffffffffffffff163373ffffffffffffffffffffffffffffffffffffffff16146106f7576040517f08c379a00000000000000000000000000000000000000000000000000000000081526004016106ee90610fdc565b60405180910390fd5b610701828261090a565b5050565b61070d610878565b6107168161092d565b50565b60007f000000000000000000000000000000000000000000000000000000000000000073ffffffffffffffffffffffffffffffffffffffff16634000aea07f00000000000000000000000000000000000000000000000000000000000000008486600060405160200161078d929190610eee565b6040516020818303038152906040526040518463ffffffff1660e01b81526004016107ba93929190610e95565b602060405180830381600087803b1580156107d457600080fd5b505af11580156107e8573d6000803e3d6000fd5b505050506040513d601f19601f8201168201806040525081019061080c9190610b5d565b50600061082e8460003060008089815260200190815260200160002054610a5c565b905060016000808681526020019081526020016000205461084f9190611064565b6000808681526020019081526020016000208190555061086f8482610a98565b91505092915050565b600160009054906101000a900473ffffffffffffffffffffffffffffffffffffffff1673ffffffffffffffffffffffffffffffffffffffff163373ffffffffffffffffffffffffffffffffffffffff1614610908576040517f08c379a00000000000000000000000000000000000000000000000000000000081526004016108ff90610f7c565b60405180910390fd5b565b8160085414156109205780600581905550610929565b60646005819055505b5050565b3373ffffffffffffffffffffffffffffffffffffffff168173ffffffffffffffffffffffffffffffffffffffff16141561099c576040517f08c379a000000000000000000000000000000000000000000000000000000000815260040161099390610ffc565b60405180910390fd5b80600260006101000a81548173ffffffffffffffffffffffffffffffffffffffff021916908373ffffffffffffffffffffffffffffffffffffffff1602179055508073ffffffffffffffffffffffffffffffffffffffff16600160009054906101000a900473ffffffffffffffffffffffffffffffffffffffff1673ffffffffffffffffffffffffffffffffffffffff167fed8889f560326eb138920d842192f0eb3dd22b4f139c87a2c57538e05bae127860405160405180910390a350565b600084848484604051602001610a759493929190610f17565b6040516020818303038152906040528051906020012060001c9050949350505050565b60008282604051602001610aad929190610e25565b60405160208183030381529060405280519060200120905092915050565b600081359050610ada81611193565b92915050565b600081519050610aef816111aa565b92915050565b600081359050610b04816111c1565b92915050565b600081359050610b19816111d8565b92915050565b600081519050610b2e816111d8565b92915050565b600060208284031215610b4657600080fd5b6000610b5484828501610acb565b91505092915050565b600060208284031215610b6f57600080fd5b6000610b7d84828501610ae0565b91505092915050565b60008060408385031215610b9957600080fd5b6000610ba785828601610af5565b9250506020610bb885828601610b0a565b9150509250929050565b600060208284031215610bd457600080fd5b6000610be284828501610b1f565b91505092915050565b610bf4816110ba565b82525050565b610c03816110d8565b82525050565b610c1a610c15826110d8565b61113f565b82525050565b6000610c2b82611037565b610c358185611042565b9350610c4581856020860161110c565b610c4e81611182565b840191505092915050565b6000610c66601683611053565b91507f4d7573742062652070726f706f736564206f776e6572000000000000000000006000830152602082019050919050565b6000610ca6601683611053565b91507f4f6e6c792063616c6c61626c65206279206f776e6572000000000000000000006000830152602082019050919050565b6000610ce6602b83611053565b91507f4e6f7420656e6f756768204c494e4b202d2066696c6c20636f6e74726163742060008301527f77697468206661756365740000000000000000000000000000000000000000006020830152604082019050919050565b6000610d4c601283611053565b91507f556e61626c6520746f207472616e7366657200000000000000000000000000006000830152602082019050919050565b6000610d8c601f83611053565b91507f4f6e6c7920565246436f6f7264696e61746f722063616e2066756c66696c6c006000830152602082019050919050565b6000610dcc601783611053565b91507f43616e6e6f74207472616e7366657220746f2073656c660000000000000000006000830152602082019050919050565b610e0881611102565b82525050565b610e1f610e1a82611102565b611149565b82525050565b6000610e318285610c09565b602082019150610e418284610e0e565b6020820191508190509392505050565b6000602082019050610e666000830184610beb565b92915050565b6000604082019050610e816000830185610beb565b610e8e6020830184610dff565b9392505050565b6000606082019050610eaa6000830186610beb565b610eb76020830185610dff565b8181036040830152610ec98184610c20565b9050949350505050565b6000602082019050610ee86000830184610bfa565b92915050565b6000604082019050610f036000830185610bfa565b610f106020830184610dff565b9392505050565b6000608082019050610f2c6000830187610bfa565b610f396020830186610dff565b610f466040830185610beb565b610f536060830184610dff565b95945050505050565b60006020820190508181036000830152610f7581610c59565b9050919050565b60006020820190508181036000830152610f9581610c99565b9050919050565b60006020820190508181036000830152610fb581610cd9565b9050919050565b60006020820190508181036000830152610fd581610d3f565b9050919050565b60006020820190508181036000830152610ff581610d7f565b9050919050565b6000602082019050818103600083015261101581610dbf565b9050919050565b60006020820190506110316000830184610dff565b92915050565b600081519050919050565b600082825260208201905092915050565b600082825260208201905092915050565b600061106f82611102565b915061107a83611102565b9250827fffffffffffffffffffffffffffffffffffffffffffffffffffffffffffffffff038211156110af576110ae611153565b5b828201905092915050565b60006110c5826110e2565b9050919050565b60008115159050919050565b6000819050919050565b600073ffffffffffffffffffffffffffffffffffffffff82169050919050565b6000819050919050565b60005b8381101561112a57808201518184015260208101905061110f565b83811115611139576000848401525b50505050565b6000819050919050565b6000819050919050565b7f4e487b7100000000000000000000000000000000000000000000000000000000600052601160045260246000fd5b6000601f19601f8301169050919050565b61119c816110ba565b81146111a757600080fd5b50565b6111b3816110cc565b81146111be57600080fd5b50565b6111ca816110d8565b81146111d557600080fd5b50565b6111e181611102565b81146111ec57600080fd5b5056fea2646970667358221220185e66d638d300f59c7cce28936190b6002f3bfcb6b181f873220c78e045066a64736f6c63430008000033",
  "immutableReferences": {
    "255": [
      {
        "length": 32,
        "start": 514
      },
      {
        "length": 32,
        "start": 1237
      },
      {
        "length": 32,
        "start": 1298
      },
      {
        "length": 32,
        "start": 1821
      }
    ],
    "257": [
      {
        "length": 32,
        "start": 1643
      },
      {
        "length": 32,
        "start": 1881
      }
    ]
  },
  "source": "// SPDX-License-Identifier: MIT\r\npragma solidity ^0.8.0;\r\n\r\nimport \"@chainlink/contracts/src/v0.8/VRFConsumerBase.sol\";\r\nimport \"@chainlink/contracts/src/v0.8/ConfirmedOwner.sol\";\r\n\r\n\r\n\r\n// Consideraciones de seguridad\r\n//requestId para determinar el orden y que no hagan trampa los mineros\r\n//escoger una cantidad de bloques de seguridad apropiado. ya que un minero podra probar en diferentes bloques para obtener diferentes randoms hasta encontrar uno que le convenga\r\n// no re pedir un valor aunque este no llegue ya que podran no mandarlo hasta encontrar el apropiado que quieren\r\n// no aceptar ms inputs despus de pedir el numero ya que podran utilizarlo a su favor.\r\n//fulfillrandomWords no debe revertir ya que no se rellamar. Mantenerla lo ms simple posible. Mas procesamiento dejarlo afuera, para usuarios, uno mismo o nodos de automatizacin (chainlin en estos nodos llama constantemente a una funcion de lectura que le dice cuando es tiempo de ejecutar un cierto trabajo, en ese entonces llama a la de escritura que la ejecuta ).\r\n// Utilizar la funcin que nos provee para verificar que la aleatoriedad fuera completada\r\n\r\n/*\r\ndeployed at= 0xeBeC6Be2e4F47C5d35dcc29608Ea5EB34700774d\r\n\r\nFuncionamiento\r\n\r\nMySmartContract -> wrapper -> coordinator -> service\r\nMySmartContract <- wrapper <- coordinator <- service\r\n\r\nMi SC pide un numero aleatorio al wrapper que se lo manda al coordinador. Todo esto lo hace onchain.\r\nservice est suscripto al coordinador, entonces cuando le hacen una peticin lo lee en los logs y crea el numero\r\noffchain y las pruebas criptogrficas de su creacin. el coordinador comprueba que ese numero haya sido correctamente\r\ngenerado con esas pruebas criptogrficas y se lo regresa al wrapper para que me lo devuelva en mi SC.\r\nPara lograr todo esto, adems de pagar el gas, y poder preveer lo que se va a usar para recibirlo, debo pagarle\r\na los nodos del oraculo con link, por eso a este contrato tendremos que mandarle links para que funcione.\r\n*/\r\n\r\n\r\n\r\ncontract Random is VRFConsumerBase, ConfirmedOwner { \r\n\r\n/*\r\nhttps://docs.chain.link/vrf/v1/supported-networks\r\nlink address           = 0x326C977E6efc84E512bB9C30f76E30c160eD06FB\r\nkey hash               = 0x0476f9a745b61ea5c0ab224d3a6e4c99f0b02fce4da01143a4f70aa80ae76e8a\r\nChainlinkVRFCoordinator= 0x2bce784e69d2Ff36c71edcB9F88358dB0DfB55b4\r\n*/\r\n\r\n\tbytes32 internal keyHash = 0x0476f9a745b61ea5c0ab224d3a6e4c99f0b02fce4da01143a4f70aa80ae76e8a; // Hash para mximo gas a utilizar, en la V2 te deja especificarlo no teniendo que poner este hash\r\n    uint256 internal fee = 0.1 * 10**18; // 0.1 LINK, lo que cobran los nodos por mandarnos el numero aelatorio\r\n    uint256 public randomResult; // Donde guardaremos el numero aleatorio devuelto\r\n    address public VRFCoordinator = 0x2bce784e69d2Ff36c71edcB9F88358dB0DfB55b4; // la direccin del contrato coordinador\r\n    address public link = 0x326C977E6efc84E512bB9C30f76E30c160eD06FB; // la direccion del contrato de los links\r\n\r\n    bytes32 public lastRequestedId; // guardo el ltimo Id solicitado, aunque para el ejemplo no es muy necesario\r\n    \r\n    constructor() VRFConsumerBase(VRFCoordinator, link) ConfirmedOwner(msg.sender) {} // el constructor me manda a las bases los parametros para inicializar\r\n\r\n\r\n\tfunction requestNewRandom() public returns (bytes32) {\r\n        require(LINK.balanceOf(address(this)) >= fee, \"Not enough LINK - fill contract with faucet\"); // evala si los links en este smart contract me alcanza para pagar los fees\r\n        bytes32 _requestId = requestRandomness(keyHash, fee); // pide el numero aleatorio mandandole el fee y el gas que usara para el fallback\r\n        lastRequestedId = _requestId; // guardo el last requestedId, para luego poder ver si es el que vino\r\n        return _requestId; // Lo devuelvo solo para tenerlo, no es importante\r\n    }\r\n\r\n    function fulfillRandomness(bytes32 _requestId, uint256 _randomNumber) internal override {\r\n        if(lastRequestedId == _requestId) // corroboro que el contrato coordinador me est mandando el aleatorio correspondiente al Id que me haba devuelto\r\n        {\r\n            randomResult = _randomNumber;// si es as, guardo el numero\r\n        }\r\n        else\r\n        {\r\n            randomResult = 100; // sino lo pongo en 100 solo para ver que se ejecut esta funcin pero que no devolvi el numero aleatorio\r\n        }\r\n    }\r\n\r\n    //Permite sacar los links que hayamos ingresado para que no queden atrapados\r\n    function withdrawLink() public onlyOwner {\r\n        // el onlyOwner viene heredado de ConfirmedOwner\r\n        // retiro con la funcion transfer de erc20, todo el balance que hay en este contrato (link no es erc20 pero es compatible ya que hereda de este)\r\n        require( LINK.transfer(msg.sender, LINK.balanceOf(address(this))), \"Unable to transfer\" );\r\n    }\r\n\r\n}",
  "sourcePath": "/home/cryptocris/edIT/oraculos/random/contracts/Random.sol",
  "compiler": {
    "name": "solc",
    "version": "0.8.0+commit.c7dfd78e.Emscripten.clang"
  },
  "schemaVersion": "3.4.11",
  "updatedAt": "2023-01-26T21:44:28.037Z",
  "devdoc": {
    "kind": "dev",
    "methods": {},
    "version": 1
  },
  "userdoc": {
    "kind": "user",
    "methods": {
      "acceptOwnership()": {
        "notice": "Allows an ownership transfer to be completed by the recipient."
      },
      "owner()": {
        "notice": "Get the current owner"
      },
      "transferOwnership(address)": {
        "notice": "Allows an owner to begin transferring ownership to a new address, pending."
      }
    },
    "version": 1
  }
}