{
  "contractName": "game",
  "abi": [
    {
      "inputs": [],
      "name": "numberOfPlayers",
      "outputs": [
        {
          "internalType": "uint8",
          "name": "",
          "type": "uint8"
        }
      ],
      "stateMutability": "view",
      "type": "function"
    },
    {
      "inputs": [],
      "name": "winner",
      "outputs": [
        {
          "internalType": "address",
          "name": "",
          "type": "address"
        }
      ],
      "stateMutability": "view",
      "type": "function"
    },
    {
      "inputs": [
        {
          "internalType": "uint256",
          "name": "_number",
          "type": "uint256"
        }
      ],
      "name": "registerGamble",
      "outputs": [],
      "stateMutability": "payable",
      "type": "function"
    }
  ],
  "bytecode": "0x608060405234801561001057600080fd5b50610743806100206000396000f3fe6080604052600436106100345760003560e01c80632484650c146100395780636f4bda1714610055578063dfbf53ae14610080575b600080fd5b610053600480360381019061004e919061048f565b6100ab565b005b34801561006157600080fd5b5061006a6102b0565b60405161007791906104d8565b60405180910390f35b34801561008c57600080fd5b506100956102c3565b6040516100a29190610534565b60405180910390f35b670de0b6b3a764000034146100f5576040517f08c379a00000000000000000000000000000000000000000000000000000000081526004016100ec906105d2565b60405180910390fd5b6001600460009054906101000a900460ff1660ff16106101d657336000600460009054906101000a900460ff1660ff1660028110610136576101356105f2565b5b6002020160000160006101000a81548173ffffffffffffffffffffffffffffffffffffffff021916908373ffffffffffffffffffffffffffffffffffffffff160217905550806000600460009054906101000a900460ff1660ff16600281106101a2576101a16105f2565b5b60020201600101819055506000600460006101000a81548160ff021916908360ff1602179055506101d16102e9565b6102ad565b336000600460009054906101000a900460ff1660ff16600281106101fd576101fc6105f2565b5b6002020160000160006101000a81548173ffffffffffffffffffffffffffffffffffffffff021916908373ffffffffffffffffffffffffffffffffffffffff160217905550806000600460009054906101000a900460ff1660ff1660028110610269576102686105f2565b5b60020201600101819055506004600081819054906101000a900460ff168092919061029390610650565b91906101000a81548160ff021916908360ff160217905550505b50565b600460009054906101000a900460ff1681565b600460019054906101000a900473ffffffffffffffffffffffffffffffffffffffff1681565b6000806000600160028110610301576103006105f2565b5b60020201600101546000806002811061031d5761031c6105f2565b5b600202016001015461032f9190610679565b9050600160028261034091906106dc565b036103885760008060028110610359576103586105f2565b5b6002020160000160009054906101000a900473ffffffffffffffffffffffffffffffffffffffff1691506103c8565b600060016002811061039d5761039c6105f2565b5b6002020160000160009054906101000a900473ffffffffffffffffffffffffffffffffffffffff1691505b81600460016101000a81548173ffffffffffffffffffffffffffffffffffffffff021916908373ffffffffffffffffffffffffffffffffffffffff1602179055508173ffffffffffffffffffffffffffffffffffffffff166108fc479081150290604051600060405180830381858888f1935050505015801561044f573d6000803e3d6000fd5b505050565b600080fd5b6000819050919050565b61046c81610459565b811461047757600080fd5b50565b60008135905061048981610463565b92915050565b6000602082840312156104a5576104a4610454565b5b60006104b38482850161047a565b91505092915050565b600060ff82169050919050565b6104d2816104bc565b82525050565b60006020820190506104ed60008301846104c9565b92915050565b600073ffffffffffffffffffffffffffffffffffffffff82169050919050565b600061051e826104f3565b9050919050565b61052e81610513565b82525050565b60006020820190506105496000830184610525565b92915050565b600082825260208201905092915050565b7f4e6f206d616e6461737465206c612063616e746964616420657861637461206460008201527f652065746820736f6c6963697461646100000000000000000000000000000000602082015250565b60006105bc60308361054f565b91506105c782610560565b604082019050919050565b600060208201905081810360008301526105eb816105af565b9050919050565b7f4e487b7100000000000000000000000000000000000000000000000000000000600052603260045260246000fd5b7f4e487b7100000000000000000000000000000000000000000000000000000000600052601160045260246000fd5b600061065b826104bc565b915060ff820361066e5761066d610621565b5b600182019050919050565b600061068482610459565b915061068f83610459565b92508282019050808211156106a7576106a6610621565b5b92915050565b7f4e487b7100000000000000000000000000000000000000000000000000000000600052601260045260246000fd5b60006106e782610459565b91506106f283610459565b925082610702576107016106ad565b5b82820690509291505056fea264697066735822122053e89200d339b475a944bd3d46d9dbba0380a2db33afb819de72358986d44cbb64736f6c63430008110033",
  "immutableReferences": {},
  "source": "//SPDX-License-Identifier:MIT\r\npragma solidity >=0.7.0 <0.9.0;\r\n\r\ncontract game{\r\n\r\n    struct Player{\r\n        address addr;\r\n        uint256 number;\r\n    }\r\n\r\n    Player[2] private player;\r\n    uint8 public numberOfPlayers;\r\n    address public winner;\r\n\r\n    function registerGamble(uint256 _number) external payable{\r\n        require( msg.value == 1 ether , \"No mandaste la cantidad exacta de eth solicitada\");\r\n        if(numberOfPlayers >= 1){\r\n            player[numberOfPlayers].addr=msg.sender;\r\n            player[numberOfPlayers].number=_number;\r\n            numberOfPlayers=0;\r\n            theWinnerIs();\r\n        }\r\n        else{\r\n            player[numberOfPlayers].addr=msg.sender;\r\n            player[numberOfPlayers].number=_number;\r\n            numberOfPlayers++;\r\n        }\r\n    }\r\n\r\n    function theWinnerIs() internal\r\n    {\r\n        address payable _winner;\r\n        uint256 number = player[0].number + player[1].number;\r\n        if( (number%2)==1 )\r\n        {\r\n            _winner=payable(player[0].addr);\r\n        }\r\n        else\r\n        {\r\n            _winner=payable(player[1].addr);\r\n        }\r\n        winner=_winner;\r\n        _winner.transfer(address(this).balance);\r\n    }\r\n}",
  "sourcePath": "/home/cryptocris/edIT/security/keepingSecrets/contracts/alice..sol",
  "compiler": {
    "name": "solc",
    "version": "0.8.17+commit.8df45f5f.Emscripten.clang"
  },
  "schemaVersion": "3.4.11",
  "updatedAt": "2023-01-02T00:38:36.968Z",
  "devdoc": {
    "kind": "dev",
    "methods": {},
    "version": 1
  },
  "userdoc": {
    "kind": "user",
    "methods": {},
    "version": 1
  }
}