{
  "contractName": "aliceInteligent",
  "abi": [
    {
      "inputs": [],
      "stateMutability": "payable",
      "type": "constructor"
    },
    {
      "inputs": [
        {
          "internalType": "address",
          "name": "",
          "type": "address"
        }
      ],
      "name": "balance",
      "outputs": [
        {
          "internalType": "uint256",
          "name": "",
          "type": "uint256"
        }
      ],
      "stateMutability": "view",
      "type": "function"
    },
    {
      "inputs": [],
      "name": "deposit",
      "outputs": [],
      "stateMutability": "payable",
      "type": "function"
    },
    {
      "inputs": [],
      "name": "retrieve",
      "outputs": [],
      "stateMutability": "nonpayable",
      "type": "function"
    }
  ],
  "bytecode": "0x608060405261043c806100136000396000f3fe6080604052600436106100345760003560e01c80632e64cec114610039578063d0e30db014610050578063e3d670d71461005a575b600080fd5b34801561004557600080fd5b5061004e610097565b005b6100586101ab565b005b34801561006657600080fd5b50610081600480360381019061007c919061022f565b610202565b60405161008e91906102ae565b60405180910390f35b60008060003373ffffffffffffffffffffffffffffffffffffffff1673ffffffffffffffffffffffffffffffffffffffff1681526020019081526020016000205490506000811161011d576040517f08c379a00000000000000000000000000000000000000000000000000000000081526004016101149061028e565b60405180910390fd5b60008060003373ffffffffffffffffffffffffffffffffffffffff1673ffffffffffffffffffffffffffffffffffffffff168152602001908152602001600020819055503373ffffffffffffffffffffffffffffffffffffffff166108fc829081150290604051600060405180830381858888f193505050501580156101a7573d6000803e3d6000fd5b5050565b346000803373ffffffffffffffffffffffffffffffffffffffff1673ffffffffffffffffffffffffffffffffffffffff16815260200190815260200160002060008282546101f991906102da565b92505081905550565b60006020528060005260406000206000915090505481565b600081359050610229816103ef565b92915050565b6000602082840312156102455761024461039b565b5b60006102538482850161021a565b91505092915050565b60006102696021836102c9565b9150610274826103a0565b604082019050919050565b61028881610362565b82525050565b600060208201905081810360008301526102a78161025c565b9050919050565b60006020820190506102c3600083018461027f565b92915050565b600082825260208201905092915050565b60006102e582610362565b91506102f083610362565b9250827fffffffffffffffffffffffffffffffffffffffffffffffffffffffffffffffff038211156103255761032461036c565b5b828201905092915050565b600061033b82610342565b9050919050565b600073ffffffffffffffffffffffffffffffffffffffff82169050919050565b6000819050919050565b7f4e487b7100000000000000000000000000000000000000000000000000000000600052601160045260246000fd5b600080fd5b7f4e6f207469656e657320737566696369656e746520706172612072657469726160008201527f7200000000000000000000000000000000000000000000000000000000000000602082015250565b6103f881610330565b811461040357600080fd5b5056fea264697066735822122019aa1d07f9d58548f31c362abbc998b4bd39c47018daad524fd093b32e99a14664736f6c63430008070033",
  "immutableReferences": {},
  "source": "//SPDX-License-Identifier:MIT\r\npragma solidity >=0.7.0 <0.9.0;\r\n\r\ncontract aliceInteligent{\r\n    \r\n    mapping (address=>uint256) public balance;\r\n\r\n    constructor() payable \r\n    {}\r\n\r\n    function deposit() external payable{\r\n        balance[msg.sender]+=msg.value;\r\n    }\r\n\r\n    function retrieve() external {\r\n        uint256 _balance = balance[msg.sender];\r\n        require(_balance > 0,\"No tienes suficiente para retirar\");\r\n        balance[msg.sender] = 0; // Primero el efecto, luego la interaccion. Si la interaccion falla revierte las cosas\r\n        payable(msg.sender).transfer(_balance); // aunque lo pongamos antes del efecto falla por mandar poco gas (2300). Igual no confiarse en esto que se podra optimizar en YULs y an ser vulnerable\r\n    }\r\n\r\n}",
  "sourcePath": "/home/cryptocris/edIT/security/reentrancy/contracts/inteligent_alice.sol",
  "compiler": {
    "name": "solc",
    "version": "0.8.7+commit.e28d00a7.Emscripten.clang"
  },
  "schemaVersion": "3.4.11",
  "updatedAt": "2023-01-01T21:44:52.416Z",
  "devdoc": {
    "kind": "dev",
    "methods": {},
    "version": 1
  },
  "userdoc": {
    "kind": "user",
    "methods": {},
    "version": 1
  }
}