{
  "contractName": "APIConsumer",
  "abi": [
    {
      "inputs": [],
      "stateMutability": "nonpayable",
      "type": "constructor"
    },
    {
      "anonymous": false,
      "inputs": [
        {
          "indexed": true,
          "internalType": "bytes32",
          "name": "id",
          "type": "bytes32"
        }
      ],
      "name": "ChainlinkCancelled",
      "type": "event"
    },
    {
      "anonymous": false,
      "inputs": [
        {
          "indexed": true,
          "internalType": "bytes32",
          "name": "id",
          "type": "bytes32"
        }
      ],
      "name": "ChainlinkFulfilled",
      "type": "event"
    },
    {
      "anonymous": false,
      "inputs": [
        {
          "indexed": true,
          "internalType": "bytes32",
          "name": "id",
          "type": "bytes32"
        }
      ],
      "name": "ChainlinkRequested",
      "type": "event"
    },
    {
      "anonymous": false,
      "inputs": [
        {
          "indexed": true,
          "internalType": "address",
          "name": "from",
          "type": "address"
        },
        {
          "indexed": true,
          "internalType": "address",
          "name": "to",
          "type": "address"
        }
      ],
      "name": "OwnershipTransferRequested",
      "type": "event"
    },
    {
      "anonymous": false,
      "inputs": [
        {
          "indexed": true,
          "internalType": "address",
          "name": "from",
          "type": "address"
        },
        {
          "indexed": true,
          "internalType": "address",
          "name": "to",
          "type": "address"
        }
      ],
      "name": "OwnershipTransferred",
      "type": "event"
    },
    {
      "anonymous": false,
      "inputs": [
        {
          "indexed": true,
          "internalType": "bytes32",
          "name": "requestId",
          "type": "bytes32"
        },
        {
          "indexed": false,
          "internalType": "uint256",
          "name": "volume",
          "type": "uint256"
        }
      ],
      "name": "RequestVolume",
      "type": "event"
    },
    {
      "inputs": [],
      "name": "acceptOwnership",
      "outputs": [],
      "stateMutability": "nonpayable",
      "type": "function"
    },
    {
      "inputs": [],
      "name": "owner",
      "outputs": [
        {
          "internalType": "address",
          "name": "",
          "type": "address"
        }
      ],
      "stateMutability": "view",
      "type": "function",
      "constant": true
    },
    {
      "inputs": [
        {
          "internalType": "address",
          "name": "to",
          "type": "address"
        }
      ],
      "name": "transferOwnership",
      "outputs": [],
      "stateMutability": "nonpayable",
      "type": "function"
    },
    {
      "inputs": [],
      "name": "volume",
      "outputs": [
        {
          "internalType": "uint256",
          "name": "",
          "type": "uint256"
        }
      ],
      "stateMutability": "view",
      "type": "function",
      "constant": true
    },
    {
      "inputs": [],
      "name": "requestVolumeData",
      "outputs": [
        {
          "internalType": "bytes32",
          "name": "requestId",
          "type": "bytes32"
        }
      ],
      "stateMutability": "nonpayable",
      "type": "function"
    },
    {
      "inputs": [
        {
          "internalType": "bytes32",
          "name": "_requestId",
          "type": "bytes32"
        },
        {
          "internalType": "uint256",
          "name": "_volume",
          "type": "uint256"
        }
      ],
      "name": "fulfill",
      "outputs": [],
      "stateMutability": "nonpayable",
      "type": "function"
    },
    {
      "inputs": [],
      "name": "withdrawLink",
      "outputs": [],
      "stateMutability": "nonpayable",
      "type": "function"
    }
  ],
  "bytecode": "0x608060405260016004553480156200001657600080fd5b50338060008073ffffffffffffffffffffffffffffffffffffffff168273ffffffffffffffffffffffffffffffffffffffff1614156200008d576040517f08c379a00000000000000000000000000000000000000000000000000000000081526004016200008490620003f8565b60405180910390fd5b81600660006101000a81548173ffffffffffffffffffffffffffffffffffffffff021916908373ffffffffffffffffffffffffffffffffffffffff160217905550600073ffffffffffffffffffffffffffffffffffffffff168173ffffffffffffffffffffffffffffffffffffffff161462000115576200011481620001ba60201b60201c565b5b5050506200013d73326c977e6efc84e512bb9c30f76e30c160ed06fb620002ec60201b60201c565b6200016273cc79157eb46f5624204f47ab42b3906caa40eab76200033060201b60201c565b7f6361393833363663633733313439353762386330313263373266303561656562600981905550600a670de0b6b3a76400006001620001a2919062000485565b620001ae91906200044d565b600a819055506200054e565b3373ffffffffffffffffffffffffffffffffffffffff168173ffffffffffffffffffffffffffffffffffffffff1614156200022c576040517f08c379a000000000000000000000000000000000000000000000000000000000815260040162000223906200041a565b60405180910390fd5b80600760006101000a81548173ffffffffffffffffffffffffffffffffffffffff021916908373ffffffffffffffffffffffffffffffffffffffff1602179055508073ffffffffffffffffffffffffffffffffffffffff16600660009054906101000a900473ffffffffffffffffffffffffffffffffffffffff1673ffffffffffffffffffffffffffffffffffffffff167fed8889f560326eb138920d842192f0eb3dd22b4f139c87a2c57538e05bae127860405160405180910390a350565b80600260006101000a81548173ffffffffffffffffffffffffffffffffffffffff021916908373ffffffffffffffffffffffffffffffffffffffff16021790555050565b80600360006101000a81548173ffffffffffffffffffffffffffffffffffffffff021916908373ffffffffffffffffffffffffffffffffffffffff16021790555050565b6000620003836018836200043c565b91507f43616e6e6f7420736574206f776e657220746f207a65726f00000000000000006000830152602082019050919050565b6000620003c56017836200043c565b91507f43616e6e6f74207472616e7366657220746f2073656c660000000000000000006000830152602082019050919050565b60006020820190508181036000830152620004138162000374565b9050919050565b600060208201905081810360008301526200043581620003b6565b9050919050565b600082825260208201905092915050565b60006200045a82620004e6565b91506200046783620004e6565b9250826200047a57620004796200051f565b5b828204905092915050565b60006200049282620004e6565b91506200049f83620004e6565b9250817fffffffffffffffffffffffffffffffffffffffffffffffffffffffffffffffff0483118215151615620004db57620004da620004f0565b5b828202905092915050565b6000819050919050565b7f4e487b7100000000000000000000000000000000000000000000000000000000600052601160045260246000fd5b7f4e487b7100000000000000000000000000000000000000000000000000000000600052601260045260246000fd5b611f0c806200055e6000396000f3fe608060405234801561001057600080fd5b506004361061007d5760003560e01c80638da5cb5b1161005b5780638da5cb5b146100c65780638dc654a2146100e4578063c618a1e4146100ee578063f2fde38b1461010c5761007d565b80634357855e146100825780636021abac1461009e57806379ba5097146100bc575b600080fd5b61009c60048036038101906100979190611457565b610128565b005b6100a6610271565b6040516100b3919061185e565b60405180910390f35b6100c46103d5565b005b6100ce61056c565b6040516100db9190611757565b60405180910390f35b6100ec610596565b005b6100f6610701565b6040516101039190611939565b60405180910390f35b61012660048036038101906101219190611405565b610707565b005b816005600082815260200190815260200160002060009054906101000a900473ffffffffffffffffffffffffffffffffffffffff1673ffffffffffffffffffffffffffffffffffffffff163373ffffffffffffffffffffffffffffffffffffffff16146101ca576040517f08c379a00000000000000000000000000000000000000000000000000000000081526004016101c190611919565b60405180910390fd5b6005600082815260200190815260200160002060006101000a81549073ffffffffffffffffffffffffffffffffffffffff0219169055807f7cc135e0cebb02c3480ae5d74d377283180a2601f8f644edf7987b009316c63a60405160405180910390a2827f673b38182859a514d734bdfcb49d3a05c4a641dec9311d9894c9717bcb79af768360405161025d9190611939565b60405180910390a281600881905550505050565b60008061028860095430634357855e60e01b61071b565b90506102ec6040518060400160405280600381526020017f6765740000000000000000000000000000000000000000000000000000000000815250604051806080016040528060498152602001611e8e604991398361074c9092919063ffffffff16565b61036b6040518060400160405280600481526020017f70617468000000000000000000000000000000000000000000000000000000008152506040518060400160405280601881526020017f5241572c4554482c5553442c564f4c554d453234484f555200000000000000008152508361074c9092919063ffffffff16565b6000670de0b6b3a764000090506103c26040518060400160405280600581526020017f74696d6573000000000000000000000000000000000000000000000000000000815250828461077f9092919063ffffffff16565b6103ce82600a546107b2565b9250505090565b600760009054906101000a900473ffffffffffffffffffffffffffffffffffffffff1673ffffffffffffffffffffffffffffffffffffffff163373ffffffffffffffffffffffffffffffffffffffff1614610465576040517f08c379a000000000000000000000000000000000000000000000000000000000815260040161045c90611879565b60405180910390fd5b6000600660009054906101000a900473ffffffffffffffffffffffffffffffffffffffff16905033600660006101000a81548173ffffffffffffffffffffffffffffffffffffffff021916908373ffffffffffffffffffffffffffffffffffffffff1602179055506000600760006101000a81548173ffffffffffffffffffffffffffffffffffffffff021916908373ffffffffffffffffffffffffffffffffffffffff1602179055503373ffffffffffffffffffffffffffffffffffffffff168173ffffffffffffffffffffffffffffffffffffffff167f8be0079c531659141344cd1fd0a4f28419497f9722a3daafe3b4186f6b6457e060405160405180910390a350565b6000600660009054906101000a900473ffffffffffffffffffffffffffffffffffffffff16905090565b61059e6107e9565b60006105a861087b565b90508073ffffffffffffffffffffffffffffffffffffffff1663a9059cbb338373ffffffffffffffffffffffffffffffffffffffff166370a08231306040518263ffffffff1660e01b81526004016106009190611757565b60206040518083038186803b15801561061857600080fd5b505afa15801561062c573d6000803e3d6000fd5b505050506040513d601f19601f820116820180604052508101906106509190611493565b6040518363ffffffff1660e01b815260040161066d929190611772565b602060405180830381600087803b15801561068757600080fd5b505af115801561069b573d6000803e3d6000fd5b505050506040513d601f19601f820116820180604052508101906106bf919061142e565b6106fe576040517f08c379a00000000000000000000000000000000000000000000000000000000081526004016106f5906118d9565b60405180910390fd5b50565b60085481565b61070f6107e9565b610718816108a5565b50565b610723611315565b61072b611315565b610742858585846109d4909392919063ffffffff16565b9150509392505050565b610763828460800151610a8490919063ffffffff16565b61077a818460800151610a8490919063ffffffff16565b505050565b610796828460800151610a8490919063ffffffff16565b6107ad818460800151610aa990919063ffffffff16565b505050565b60006107e1600360009054906101000a900473ffffffffffffffffffffffffffffffffffffffff168484610b56565b905092915050565b600660009054906101000a900473ffffffffffffffffffffffffffffffffffffffff1673ffffffffffffffffffffffffffffffffffffffff163373ffffffffffffffffffffffffffffffffffffffff1614610879576040517f08c379a0000000000000000000000000000000000000000000000000000000008152600401610870906118b9565b60405180910390fd5b565b6000600260009054906101000a900473ffffffffffffffffffffffffffffffffffffffff16905090565b3373ffffffffffffffffffffffffffffffffffffffff168173ffffffffffffffffffffffffffffffffffffffff161415610914576040517f08c379a000000000000000000000000000000000000000000000000000000000815260040161090b906118f9565b60405180910390fd5b80600760006101000a81548173ffffffffffffffffffffffffffffffffffffffff021916908373ffffffffffffffffffffffffffffffffffffffff1602179055508073ffffffffffffffffffffffffffffffffffffffff16600660009054906101000a900473ffffffffffffffffffffffffffffffffffffffff1673ffffffffffffffffffffffffffffffffffffffff167fed8889f560326eb138920d842192f0eb3dd22b4f139c87a2c57538e05bae127860405160405180910390a350565b6109dc611315565b6109ec8560800151610100610c22565b508385600001818152505082856020019073ffffffffffffffffffffffffffffffffffffffff16908173ffffffffffffffffffffffffffffffffffffffff16815250508185604001907bffffffffffffffffffffffffffffffffffffffffffffffffffffffff191690817bffffffffffffffffffffffffffffffffffffffffffffffffffffffff191681525050849050949350505050565b610a918260038351610c8c565b610aa48183610e1190919063ffffffff16565b505050565b7fffffffffffffffffffffffffffffffffffffffffffffffff0000000000000000811215610ae057610adb8282610e33565b610b52565b67ffffffffffffffff811315610aff57610afa8282610eaa565b610b51565b60008112610b1857610b1382600083610c8c565b610b50565b610b4f826001837fffffffffffffffffffffffffffffffffffffffffffffffffffffffffffffffff610b4a9190611ba2565b610c8c565b5b5b5b5050565b6000806004549050600181610b6b9190611981565b6004819055506000634042994660e01b60008087600001513089604001518760018c6080015160000151604051602401610bac98979695949392919061179b565b604051602081830303815290604052907bffffffffffffffffffffffffffffffffffffffffffffffffffffffff19166020820180517bffffffffffffffffffffffffffffffffffffffffffffffffffffffff83818316178352505050509050610c1786838684610ef6565b925050509392505050565b610c2a611382565b6000602083610c399190611d77565b14610c6557602082610c4b9190611d77565b6020610c579190611c36565b82610c629190611981565b91505b81836020018181525050604051808452600081528281016020016040525082905092915050565b60178167ffffffffffffffff1611610cc357610cbd8160058460ff16901b60ff16178461109a90919063ffffffff16565b50610e0c565b60ff8167ffffffffffffffff1611610d1957610cf2601860058460ff16901b178461109a90919063ffffffff16565b50610d138167ffffffffffffffff166001856110ba9092919063ffffffff16565b50610e0b565b61ffff8167ffffffffffffffff1611610d7057610d49601960058460ff16901b178461109a90919063ffffffff16565b50610d6a8167ffffffffffffffff166002856110ba9092919063ffffffff16565b50610e0a565b63ffffffff8167ffffffffffffffff1611610dc957610da2601a60058460ff16901b178461109a90919063ffffffff16565b50610dc38167ffffffffffffffff166004856110ba9092919063ffffffff16565b50610e09565b610de6601b60058460ff16901b178461109a90919063ffffffff16565b50610e078167ffffffffffffffff166008856110ba9092919063ffffffff16565b505b5b5b5b505050565b610e19611382565b610e2b838460000151518485516110dc565b905092915050565b610e5160036005600660ff16901b178361109a90919063ffffffff16565b50610ea682827fffffffffffffffffffffffffffffffffffffffffffffffffffffffffffffffff610e829190611ba2565b604051602001610e929190611939565b6040516020818303038152906040526111cb565b5050565b610ec860026005600660ff16901b178361109a90919063ffffffff16565b50610ef28282604051602001610ede9190611939565b6040516020818303038152906040526111cb565b5050565b60003084604051602001610f0b92919061172b565b604051602081830303815290604052805190602001209050846005600083815260200190815260200160002060006101000a81548173ffffffffffffffffffffffffffffffffffffffff021916908373ffffffffffffffffffffffffffffffffffffffff160217905550807fb5e6e01e79f91267dc17b4e6314d5d4d03593d2ceee0fbb452b750bd70ea5af960405160405180910390a2600260009054906101000a900473ffffffffffffffffffffffffffffffffffffffff1673ffffffffffffffffffffffffffffffffffffffff16634000aea08685856040518463ffffffff1660e01b815260040161100193929190611820565b602060405180830381600087803b15801561101b57600080fd5b505af115801561102f573d6000803e3d6000fd5b505050506040513d601f19601f82011682018060405250810190611053919061142e565b611092576040517f08c379a000000000000000000000000000000000000000000000000000000000815260040161108990611899565b60405180910390fd5b949350505050565b6110a2611382565b6110b283846000015151846111f0565b905092915050565b6110c2611382565b6110d3848560000151518585611247565b90509392505050565b6110e4611382565b82518211156110f257600080fd5b846020015182856111039190611981565b111561113857611137856002611128886020015188876111239190611981565b6112d5565b6111329190611b48565b6112f1565b5b6000808651805187602083010193508088870111156111575787860182525b60208701925050505b6020841061119e57805182526020826111799190611981565b91506020816111889190611981565b90506020846111979190611c36565b9350611160565b60006001856020036101000a03905080198251168184511681811785525050508692505050949350505050565b6111d88260028351610c8c565b6111eb8183610e1190919063ffffffff16565b505050565b6111f8611382565b8360200151831061121e5761121d84600286602001516112189190611b48565b6112f1565b5b835180516020858301018481538186141561123a576001820183525b5050508390509392505050565b61124f611382565b846020015184836112609190611981565b11156112885761128785600286856112789190611981565b6112829190611b48565b6112f1565b5b600060018361010061129a9190611a2a565b6112a49190611c36565b905085518386820101858319825116178152815185880111156112c75784870182525b505085915050949350505050565b6000818311156112e7578290506112eb565b8190505b92915050565b6000826000015190506113048383610c22565b5061130f8382610e11565b50505050565b6040518060a0016040528060008019168152602001600073ffffffffffffffffffffffffffffffffffffffff16815260200160007bffffffffffffffffffffffffffffffffffffffffffffffffffffffff191681526020016000815260200161137c611382565b81525090565b604051806040016040528060608152602001600081525090565b6000813590506113ab81611e31565b92915050565b6000815190506113c081611e48565b92915050565b6000813590506113d581611e5f565b92915050565b6000813590506113ea81611e76565b92915050565b6000815190506113ff81611e76565b92915050565b60006020828403121561141757600080fd5b60006114258482850161139c565b91505092915050565b60006020828403121561144057600080fd5b600061144e848285016113b1565b91505092915050565b6000806040838503121561146a57600080fd5b6000611478858286016113c6565b9250506020611489858286016113db565b9150509250929050565b6000602082840312156114a557600080fd5b60006114b3848285016113f0565b91505092915050565b6114c581611c6a565b82525050565b6114d481611c88565b82525050565b6114e381611c92565b82525050565b60006114f482611954565b6114fe818561195f565b935061150e818560208601611d16565b61151781611e06565b840191505092915050565b61153361152e82611cf2565b611d49565b82525050565b6000611546601683611970565b91507f4d7573742062652070726f706f736564206f776e6572000000000000000000006000830152602082019050919050565b6000611586602383611970565b91507f756e61626c6520746f207472616e73666572416e6443616c6c20746f206f726160008301527f636c6500000000000000000000000000000000000000000000000000000000006020830152604082019050919050565b60006115ec601683611970565b91507f4f6e6c792063616c6c61626c65206279206f776e6572000000000000000000006000830152602082019050919050565b600061162c601283611970565b91507f556e61626c6520746f207472616e7366657200000000000000000000000000006000830152602082019050919050565b600061166c601783611970565b91507f43616e6e6f74207472616e7366657220746f2073656c660000000000000000006000830152602082019050919050565b60006116ac602883611970565b91507f536f75726365206d75737420626520746865206f7261636c65206f662074686560008301527f20726571756573740000000000000000000000000000000000000000000000006020830152604082019050919050565b61170e81611ce8565b82525050565b61172561172082611ce8565b611d6d565b82525050565b60006117378285611522565b6014820191506117478284611714565b6020820191508190509392505050565b600060208201905061176c60008301846114bc565b92915050565b600060408201905061178760008301856114bc565b6117946020830184611705565b9392505050565b6000610100820190506117b1600083018b6114bc565b6117be602083018a611705565b6117cb60408301896114cb565b6117d860608301886114bc565b6117e560808301876114da565b6117f260a0830186611705565b6117ff60c0830185611705565b81810360e083015261181181846114e9565b90509998505050505050505050565b600060608201905061183560008301866114bc565b6118426020830185611705565b818103604083015261185481846114e9565b9050949350505050565b600060208201905061187360008301846114cb565b92915050565b6000602082019050818103600083015261189281611539565b9050919050565b600060208201905081810360008301526118b281611579565b9050919050565b600060208201905081810360008301526118d2816115df565b9050919050565b600060208201905081810360008301526118f28161161f565b9050919050565b600060208201905081810360008301526119128161165f565b9050919050565b600060208201905081810360008301526119328161169f565b9050919050565b600060208201905061194e6000830184611705565b92915050565b600081519050919050565b600082825260208201905092915050565b600082825260208201905092915050565b600061198c82611ce8565b915061199783611ce8565b9250827fffffffffffffffffffffffffffffffffffffffffffffffffffffffffffffffff038211156119cc576119cb611da8565b5b828201905092915050565b6000808291508390505b6001851115611a21578086048111156119fd576119fc611da8565b5b6001851615611a0c5780820291505b8081029050611a1a85611e24565b94506119e1565b94509492505050565b6000611a3582611ce8565b9150611a4083611ce8565b9250611a6d7fffffffffffffffffffffffffffffffffffffffffffffffffffffffffffffffff8484611a75565b905092915050565b600082611a855760019050611b41565b81611a935760009050611b41565b8160018114611aa95760028114611ab357611ae2565b6001915050611b41565b60ff841115611ac557611ac4611da8565b5b8360020a915084821115611adc57611adb611da8565b5b50611b41565b5060208310610133831016604e8410600b8410161715611b175782820a905083811115611b1257611b11611da8565b5b611b41565b611b2484848460016119d7565b92509050818404811115611b3b57611b3a611da8565b5b81810290505b9392505050565b6000611b5382611ce8565b9150611b5e83611ce8565b9250817fffffffffffffffffffffffffffffffffffffffffffffffffffffffffffffffff0483118215151615611b9757611b96611da8565b5b828202905092915050565b6000611bad82611cbe565b9150611bb883611cbe565b9250827f800000000000000000000000000000000000000000000000000000000000000001821260008412151615611bf357611bf2611da8565b5b827f7fffffffffffffffffffffffffffffffffffffffffffffffffffffffffffffff018213600084121615611c2b57611c2a611da8565b5b828203905092915050565b6000611c4182611ce8565b9150611c4c83611ce8565b925082821015611c5f57611c5e611da8565b5b828203905092915050565b6000611c7582611cc8565b9050919050565b60008115159050919050565b6000819050919050565b60007fffffffff0000000000000000000000000000000000000000000000000000000082169050919050565b6000819050919050565b600073ffffffffffffffffffffffffffffffffffffffff82169050919050565b6000819050919050565b6000611cfd82611d04565b9050919050565b6000611d0f82611cc8565b9050919050565b60005b83811015611d34578082015181840152602081019050611d19565b83811115611d43576000848401525b50505050565b6000611d5482611d5b565b9050919050565b6000611d6682611e17565b9050919050565b6000819050919050565b6000611d8282611ce8565b9150611d8d83611ce8565b925082611d9d57611d9c611dd7565b5b828206905092915050565b7f4e487b7100000000000000000000000000000000000000000000000000000000600052601160045260246000fd5b7f4e487b7100000000000000000000000000000000000000000000000000000000600052601260045260246000fd5b6000601f19601f8301169050919050565b60008160601b9050919050565b60008160011c9050919050565b611e3a81611c6a565b8114611e4557600080fd5b50565b611e5181611c7c565b8114611e5c57600080fd5b50565b611e6881611c88565b8114611e7357600080fd5b50565b611e7f81611ce8565b8114611e8a57600080fd5b5056fe68747470733a2f2f6d696e2d6170692e63727970746f636f6d706172652e636f6d2f646174612f70726963656d756c746966756c6c3f6673796d733d455448267473796d733d555344a2646970667358221220c31d7ed4c74e60b4004c00f5d925a95f92c2c146da4b03375692307e082a2ada64736f6c63430008000033",
  "immutableReferences": {},
  "source": "// SPDX-License-Identifier: MIT\r\npragma solidity ^0.8.0;\r\n\r\nimport \"@chainlink/contracts/src/v0.8/ChainlinkClient.sol\";\r\nimport \"@chainlink/contracts/src/v0.8/ConfirmedOwner.sol\";\r\n\r\n/**\r\n * Request testnet LINK and ETH here: https://faucets.chain.link/\r\n * Find information on LINK Token Contracts and get the latest ETH and LINK faucets here: https://docs.chain.link/docs/link-token-contracts/\r\n */\r\n\r\n/**\r\n * THIS IS AN EXAMPLE CONTRACT WHICH USES HARDCODED VALUES FOR CLARITY.\r\n * THIS EXAMPLE USES UN-AUDITED CODE.\r\n * DO NOT USE THIS CODE IN PRODUCTION.\r\n */\r\n\r\ncontract APIConsumer is ChainlinkClient, ConfirmedOwner {\r\n    using Chainlink for Chainlink.Request;\r\n\r\n    uint256 public volume;\r\n    bytes32 private jobId;\r\n    uint256 private fee;\r\n\r\n    event RequestVolume(bytes32 indexed requestId, uint256 volume);\r\n\r\n    /**\r\n     * @notice Initialize the link token and target oracle\r\n     *\r\n     * Goerli Testnet details:\r\n     * Link Token: 0x326C977E6efc84E512bB9C30f76E30c160eD06FB\r\n     * Oracle: 0xCC79157eb46F5624204f47AB42b3906cAA40eaB7 (Chainlink DevRel)\r\n     * jobId: ca98366cc7314957b8c012c72f05aeeb\r\n     *\r\n     */\r\n    constructor() ConfirmedOwner(msg.sender) {\r\n        setChainlinkToken(0x326C977E6efc84E512bB9C30f76E30c160eD06FB);\r\n        setChainlinkOracle(0xCC79157eb46F5624204f47AB42b3906cAA40eaB7);\r\n        jobId = \"ca98366cc7314957b8c012c72f05aeeb\";\r\n        fee = (1 * LINK_DIVISIBILITY) / 10; // 0,1 * 10**18 (Varies by network and job)\r\n    }\r\n\r\n    /**\r\n     * Create a Chainlink request to retrieve API response, find the target\r\n     * data, then multiply by 1000000000000000000 (to remove decimal places from data).\r\n     */\r\n    function requestVolumeData() public returns (bytes32 requestId) {\r\n        Chainlink.Request memory req = buildChainlinkRequest(\r\n            jobId,\r\n            address(this),\r\n            this.fulfill.selector\r\n        );\r\n\r\n        // Set the URL to perform the GET request on\r\n        req.add(\r\n            \"get\",\r\n            \"https://min-api.cryptocompare.com/data/pricemultifull?fsyms=ETH&tsyms=USD\"\r\n        );\r\n\r\n        // Set the path to find the desired data in the API response, where the response format is:\r\n        // {\"RAW\":\r\n        //   {\"ETH\":\r\n        //    {\"USD\":\r\n        //     {\r\n        //      \"VOLUME24HOUR\": xxx.xxx,\r\n        //     }\r\n        //    }\r\n        //   }\r\n        //  }\r\n        // request.add(\"path\", \"RAW.ETH.USD.VOLUME24HOUR\"); // Chainlink nodes prior to 1.0.0 support this format\r\n        req.add(\"path\", \"RAW,ETH,USD,VOLUME24HOUR\"); // Chainlink nodes 1.0.0 and later support this format\r\n\r\n        // Multiply the result by 1000000000000000000 to remove decimals\r\n        int256 timesAmount = 10 ** 18;\r\n        req.addInt(\"times\", timesAmount);\r\n\r\n        // Sends the request\r\n        return sendChainlinkRequest(req, fee);\r\n    }\r\n\r\n    /**\r\n     * Receive the response in the form of uint256\r\n     */\r\n    function fulfill(\r\n        bytes32 _requestId,\r\n        uint256 _volume\r\n    ) public recordChainlinkFulfillment(_requestId) {\r\n        emit RequestVolume(_requestId, _volume);\r\n        volume = _volume;\r\n    }\r\n\r\n    /**\r\n     * Allow withdraw of Link tokens from the contract\r\n     */\r\n    function withdrawLink() public onlyOwner {\r\n        LinkTokenInterface link = LinkTokenInterface(chainlinkTokenAddress());\r\n        require(\r\n            link.transfer(msg.sender, link.balanceOf(address(this))),\r\n            \"Unable to transfer\"\r\n        );\r\n    }\r\n}\r\n",
  "sourcePath": "/home/cryptocris/edIT/oraculos/anyApi/contracts/APIConsumer.sol",
  "compiler": {
    "name": "solc",
    "version": "0.8.0+commit.c7dfd78e.Emscripten.clang"
  },
  "schemaVersion": "3.4.11",
  "updatedAt": "2023-01-05T19:47:48.385Z",
  "networkType": "ethereum",
  "devdoc": {
    "kind": "dev",
    "methods": {},
    "version": 1
  },
  "userdoc": {
    "kind": "user",
    "methods": {
      "acceptOwnership()": {
        "notice": "Allows an ownership transfer to be completed by the recipient."
      },
      "constructor": {
        "notice": "Initialize the link token and target oracle Goerli Testnet details: Link Token: 0x326C977E6efc84E512bB9C30f76E30c160eD06FB Oracle: 0xCC79157eb46F5624204f47AB42b3906cAA40eaB7 (Chainlink DevRel) jobId: ca98366cc7314957b8c012c72f05aeeb"
      },
      "fulfill(bytes32,uint256)": {
        "notice": "Receive the response in the form of uint256"
      },
      "owner()": {
        "notice": "Get the current owner"
      },
      "requestVolumeData()": {
        "notice": "Create a Chainlink request to retrieve API response, find the target data, then multiply by 1000000000000000000 (to remove decimal places from data)."
      },
      "transferOwnership(address)": {
        "notice": "Allows an owner to begin transferring ownership to a new address, pending."
      },
      "withdrawLink()": {
        "notice": "Allow withdraw of Link tokens from the contract"
      }
    },
    "notice": "THIS IS AN EXAMPLE CONTRACT WHICH USES HARDCODED VALUES FOR CLARITY. THIS EXAMPLE USES UN-AUDITED CODE. DO NOT USE THIS CODE IN PRODUCTION.",
    "version": 1
  }
}